:100000000C94D9080C9401090C9401090C94010971
:100010000C9401090C9401090C9401090C94010938
:100020000C9401090C9401090C940E0B0C94800B98
:100030000C9401090C9401090C9401090C94010918
:100040000C9401090C9401090C9401090C94010908
:100050000C9401090C9401090C9401090C9453139C
:100060000C9401090C9401090C9401090C940109E8
:100070000C9401090C9401090C9401090C940109D8
:100080000C9401090C9401090C9401090C940109C8
:100090000C9401090C9401090C9401090C940109B8
:1000A0000C9401090C9401090C940109F0F89C8E40
:1000B0008783878E9CF8F00000FEFF030303030391
:1000C000070EFCF80000FEFF0303030303070EFC0A
:1000D000F80000FFFF00000000000000FFFF00002C
:1000E000FEFF8383838383C7EE7C380000F8FC0E19
:1000F00007030303070EFCF800003F7FE0C0808089
:10010000C0E07F3FFFFF01010101010101FFFF008E
:1001100000FFFF0C0C0C0C1C3E77E3C100007FFFBE
:10012000C0C0C0C0C0E0703F1F00001F3F70E0C0F3
:10013000C0C0E0703F1F00007FFFC1C1C1C1C1E36B
:10014000773E1C00001F3F70E0C0C0C0E0703F1F42
:10015000000000000001FFFF01000000D5F08D1439
:10016000A1C881CFD9F1AF20005F6B6B6369596B78
:10017000775458636D7577773558606B6D7777373F
:100180001062675B3F7D6B6862686B7D777443309C
:100190007A74777C734B7069797F6F745B67474BB8
:1001A0007F7D751B19677B7F1B1A45636F777F7394
:1001B000736D65535C7F79615761677B7F7F697180
:1001C0006F736F7F7D43756253737F777B49714691
:1001D0004B7B7D766268607A767362796378736F41
:1001E000745463647B7B7F7F6B7670746B7F775412
:1001F000606375777B69716F677B6F673F5F4313E0
:100200001F2F5F000000000000006155555D57671B
:1002100055486B675C524A48084A271F1412080861
:10022000486F1D1824400214171D171402080B3CB8
:100230004F050B08030C340F160600100B2418385A
:100240003400020A646618040064653A1C10080051
:100250000C0C121A2C2300061E281E18040000166F
:100260000E100C1000023C0A1D2C0C000804360E67
:1002700039340402091D171F05090C1D061C070C43
:10028000100B2B1C1B0404000014090F0B14000896
:100290002B1F1C0A0804160E101804101840203CCE
:1002A0006C60502000000000000000000000000012
:1002B000000000000000000000000000000000003E
:1002C000000000000000000000000000000000002E
:1002D000000000000000000000000000000000001E
:1002E000000000000000000000000000000000000E
:1002F00000000000000000000000000000000000FE
:1003000000000000000000000000000000000000ED
:1003100000000000000000007C82394482007C5410
:10032000280058543400824439827CF07070F07098
:1003300070F0F0F0F0F0F0F0F000000000000000CD
:10034000000080E0E0F0F0F0F0F0F0F0F0F0F0F01D
:10035000F0F0F0F0F0F0F0F0F0F0F0F0F0F0F0F09D
:10036000F0F0F0F0F0F0F0F0F0F0F0F0F0F0F0F08D
:10037000F0F0F0F0F0F0F0F0F0F0F0F0F0F0F0F07D
:10038000F0F0F0F0F0F0F0F0F0F0F0F0F0F0F0F06D
:10039000F0E0E0800000000000000100000000002C
:1003A0000000000000000000010000FFE8E8FFE896
:1003B000E8FFFFFFFFFFFFFFFFE8E8E8E8F80000C5
:1003C0000000FFFFFFFFFFFFFFFFFFFFFFFFFFFF3B
:1003D000FFFFFFFFFF00000CCCCCCCCCCCCCCCFF83
:1003E000FFFFFFFF00000FFFFFFFFF00000CCCCC62
:1003F000CCCCC0000FFF00000CCCCCCCCCCCCCCCF7
:10040000FFFFFFFFFFFFFFFFFFFFFFFFFFFFFFFFFC
:10041000FFFFFFFF000000000000000000000000E0
:1004200000E09090E0000000000000FF8787FF8759
:1004300087FFFFFFFFFFFFFFFF80808080800000BD
:100440000000FFFF7FBF5F2F2FAFAF2F2F5FBF7F5A
:10045000FFFFFFFFFF0C0CCCCFCFCFCFCF8F8FFF95
:10046000FF0F0FCFCCCCCC0F0FFFFF0C0CCCCF0F5E
:100470000FCFCF0C0CFF0C0CCCCCCCCCCCCCCCCC40
:10048000FFFFFFFFFFFF7FBF5FAFAFAFAFAF2F5FDC
:10049000BF7FFFFF00000000F884FCFC8484868698
:1004A000FFFFFF878787868CB0C000FFFEFEFFFE40
:1004B000FEFFFFFFFFFFFFFFFF0E0E0E0E0F0000FF
:1004C0000000FFE0DFA040BEBF8B8BBFBE40A0DFBF
:1004D000E0FFFFFFFFC0C0C0CFCFCFCFCCC0C0FF79
:1004E000C0C0C0FCFCFCFCFCC0C0FFC0C0C0FFC062
:1004F000C0C0FFC0C0FFC0C0C0CCCCCCCCCCCCCC2A
:10050000FFFFFFFFFFE0DFA040BFBFA4A4BFBC40D0
:10051000A0DFE0FF000000007FE212D212E2C0CCB8
:10052000DEDECCE012D212FFCC3F00D3D3D3D3D344
:10053000D3D3D3D3D3D3D3D3D3D0D0D0D0D0D0D0A0
:100540000000FFFFFFFFFFFE7E7EFEFEFEFFFF7F3F
:100550007F7FFFFFFFFFFFFFFFC3C3EBE3FFC3C3CB
:10056000EBD3FFC3C3CBDBFFD3D3CBCBFFD3D3CBF7
:10057000CBFFFFFFC3813C0A3C81C3FFFFFFFFFFAE
:10058000FFFFFFFFFFFFFFFFFFFEFEFEFEFEFEFF81
:10059000FFFFFFFF0000D0D0D0D1D2D2D1D0D0D039
:1005A000D0D0D0D1D2D2D1D0D0D0D00E0E0E0E0E0F
:1005B0000E0E0E0E0E0E0E0E0E0E0E0E0E0E0EFE6B
:1005C0000000FFFFFFFFFC74040058DF9FDFD5DB56
:1005D000D8DAD5DF9F5F1F154CC860F1FFFFFFFF22
:1005E000FFFFFFFFFFFFFFFFFFFFFFFFFFFFFFFF1B
:1005F000FFFFFFFFFFFFFFFFFFFFFFFFFFFFFFFF0B
:10060000FFFFFFFFFFFFFFFFFFFFFFFFFFFFFFFFFA
:10061000FFFFFFFF0000FE0E0E0E0E0E0E0E0E0E62
:100620000E0E0E0E0E0E0E0E0E0E0E0000000064CC
:10063000544800384438007C006C546C0000000FB3
:100640001020478B172B162A172B172A142B172B22
:10065000172B1729142A172B172A162B172B172B92
:10066000172B172B172B172B172B172B172B172B7A
:10067000172B172B172B172B172B172B172B172B6A
:10068000172B172B172B172B172B172B172B172B5A
:10069000170B874320100F0000007C106C007C5467
:1006A000007C04780020007C444400080B00020217
:1006B00002010009040000010202000005240010EC
:1006C0000105240101010424020605240600010796
:1006D00005810310004009040100020A0000000720
:1006E00005020240000007058302400000040309E0
:1006F0000412010002EF0201404123368000010193
:1007000002030141726475696E6F204C4C430041D5
:10071000726475696E6F204C656F6E6172646F00F4
:100720003F3F373533373F241817313B3B3F373393
:10073000353F3F3533373F3F3B1B14202633353F92
:100740003F3733353533373F3F3F2F2B272438276B
:100750003F3F3733353F0000080A0C08001B2728AD
:100760000E040400080C0A00000A0C08000004240F
:100770002B1F190C0A0000080C0A0A0C08000000C4
:100780001014181B07180000080C0A00FFBF9F4D2B
:10079000AACA8AED004060B255357512FFE3C3C3A3
:1007A00009A9BF3FBFBFBFBFBFBF3FBFBF3100D061
:1007B000D073FF07070106060605050407070707AC
:1007C00007070300060606060607FFE3C1D1112B43
:1007D000BFBFBFBFBFBFBFBFBF3FBFAB0941C1F3BB
:1007E000FF070501040606050707070707070707B0
:1007F0000101050606010307F9E90800B1BF3FBF83
:10080000BFBFBFBFBFBF3FBF3F2B9991C1E3FF0534
:100810000406060605010707070707070301040684
:10082000060605040707001C3C3CF65640C0404045
:1008300040404040C04040CEFF2F2F8C00000006BB
:100840000101010202030000000000000407010191
:1008500001010100001C3E2EEED4404040404040CB
:10086000404040C04054F6BE3E0C0000020603016A
:10087000010200000000000000000606020101065F
:1008800004000616F7FF4E40C04040404040404044
:10089000C040C0D4666E3E1C000203010101020686
:1008A0000000000000000406030101010203000033
:1008B0000000000000787800787800000000000058
:1008C00000007F7F7F7F7FF7FB5D5D6DADAD6BEFE0
:1008D000DBBBBD7DEBF777EF9DFDFB37CFFFFFFF68
:1008E000FFFFFFFFFFFF010000000000000000000D
:1008F00000000000000000000000000000000000F8
:1009000000000000000000000000000001FFFFFFE9
:10091000FFFFFFFFFFFFFFFFFFFFFFFFFFFFC3FD25
:10092000C3FDC3FFC1FFD9D5CDFFD9D5CDFFFFFF93
:1009300000000000008181008181000000000000B3
:100940000000F1F1F1F1F0FFF6F7FBFBFBF7F7F632
:10095000F6F9EFF3FCEFF7F8FFFBFCFFFFFFFFFFFB
:10096000FFFFFFFFFFFFFCF8F8F8F8F8F8F8F8F8D9
:10097000F8F8F8F8F8F8F8F8F8F8F8F8F8F8F8F8F7
:10098000F8F8F8F8F8F8F8F8F8F8F8F8FCFFFFFFCE
:10099000FFFFFFFFFFFFFFFFFFFFFFFFFFFFFFFF67
:1009A000FFFFFFFFFFFFFFFFFFFFFFFFFFFFFFFF57
:1009B00000000000001717001717000000000000DB
:1009C00000001717171707FFFFFFFFFFFFFFFFFFCD
:1009D000FFFFFFFFFFFFFFFFFFFFFFFFFFFFFFFF27
:1009E000FFFFFFFFFFFFFFFFFFFFFFFFFFFFFFFF17
:1009F000FFFFFFFFFFFFFFFFFFFFFFFFFFFFFFFF07
:100A0000FFFFFFFFFFFFFFFFFFFFFFFFFFFFFFFFF6
:100A1000FFFFFFFFFFFFFFFFFFFFFFFFFFFFFFFFE6
:100A2000FFFFFFFFFFFFFFFFFFFFFFFFFFFFFFFFD6
:100A300000000000007878007878000000000000D6
:100A400000007F7F7F7F7FFFFFFFFFFFFFFFFFFF34
:100A5000FFFFFFFFFFFFFFFFFFFFFFFFFFFFFFFFA6
:100A6000FFFFFFFFFFFFFFFFFFFFFFFFFFFFFFFF96
:100A7000FFFFFFFFFFFFFFFFFFFFFFFFFFFFFFFF86
:100A8000FFFFFFFFFFFFFFFFFFFFFFFFFFFFFFFF76
:100A9000FFFFFFFFFFFFFFFFFFFFFFFFFFFFFFFF66
:100AA000FFFFFFFFFFFFFFFFFFFFFFFFFFFFFFFF56
:100AB0000000000000E1E100E1E1000000000000B2
:100AC0000000F1F1F1F1F0FFFFFFFFFFFFFFFFFF7B
:100AD000FFFFFFFFFFFFFFFFFFFFFFFFFFFFFFFF26
:100AE000FFFFFFFFFFFFFFFFFFFFFFFFFFFFFFFF16
:100AF000FFFFFFFFFFFFFFFFFFFFFFFFFFFFFFFF06
:100B0000FFFFFFFFFFFFFFFFFFFFFFFFFFFFFFFFF5
:100B1000FFFFFFFFFFFFFFFFFF7F0F37370F7FFF55
:100B2000FFFFFFFFFFFFFFFFFFFFFFFFFFFFFFFFD5
:100B300000000000000505000505000000000000A1
:100B40000000C5C5C5C5C1FFFFFFFFFFFFFFFFFFD9
:100B5000FFFFFFFFFFFFFFFFFFFFFFFFFFFFFFFFA5
:100B6000FFFFFFFFFFFFFFFFFFFFFFFFFFFFFFFF95
:100B7000FFFFFFFFFFFFFFFFFFFFFFFFFFFFFFFF85
:100B8000FFFFFFFFFFFFFFFFFFFFFFFFFFFFFFFF75
:100B9000FF03BD8181BDBDBCBC808080BCBCBCBC32
:100BA00039A71FFFFFFFFFFFFFFFFFFFFFFFFFFF53
:100BB0008080808080808080808080808080808035
:100BC00080809F9F9F9F3F7F7FFFFFFFFFFFFFFF73
:100BD000FFFFFFFFFFFFFFFFFFFFFFFFFFFFFFFF25
:100BE000FFFFFFFFFFFFFFFFFFFFFFFFFFFFFFFF15
:100BF000FFFFFFFFFFFFFFFFFFFFFFFFFFFFFFFF05
:100C0000FFFFFFFFFFFFFFFFFFFFFFFFFFFFFFFFF4
:100C1000FFC00EF696768E9F999090990FF6967675
:100C20008099E0FFFFFFFFFFFFFFFFFFFFFFFFFFD8
:100C3000FFFFFFFFFFFFFFFFFFFFFFFFFFFFFFFFC4
:100C4000FFFFFFFFFFFFFFFFFFFFFFFFFFFFFFFFB4
:100C5000FFFFBFDFAFDFAFDFAFDFAFDFAFDFBFDF94
:100C6000AFDFAFDFAFDFAFDFAFDFBFDFAFDFAFDF04
:100C7000AFDFAFDFAFDFBFDFAFDFAFDFAFDFAFDFF4
:100C8000AFDFBFDFAFDFAFDFAFDFAFDFAFDFFFFD76
:100C9000FDFDFFFEFEFFFFFFFFFFFFFFFFFEFEFF6C
:100CA000FFFFFFFFFFFFFFFFFFFFFFFFFFFFFFFF54
:100CB00000000000003E5B4F5B3E3E6B4F6B3E1CF6
:100CC0003E7C3E1C183C7E3C181C577D571C1C5E0D
:100CD0007F5E1C00183C1800FFE7C3E7FF001824E4
:100CE0001800FFE7DBE7FF30483A060E262979298E
:100CF00026407F050507407F05253F5A3CE73C5AC3
:100D00007F3E1C1C08081C1C3E7F14227F22145F9F
:100D10005F005F5F06097F017F006689956A6060FA
:100D200060606094A2FFA29408047E040810207EF4
:100D3000201008082A1C08081C2A08081E10101079
:100D4000100C1E0C1E0C30383E3830060E3E0E06BF
:100D5000000000000000005F000000070007001412
:100D60007F147F14242A7F2A1223130864623649D1
:100D70005620500008070300001C224100004122B9
:100D80001C002A1C7F1C2A08083E080800807030BE
:100D9000000808080808000060600020100804022D
:100DA0003E5149453E00427F400072494949462133
:100DB00041494D331814127F1027454545393C4AA7
:100DC00049493141211109073649494936464949BE
:100DD000291E000014000000403400000008142206
:100DE0004114141414140041221408020159090674
:100DF0003E415D594E7C1211127C7F494949363E75
:100E0000414141227F4141413E7F494949417F095A
:100E10000909013E414151737F0808087F00417F65
:100E200041002040413F017F081422417F40404063
:100E3000407F021C027F7F0408107F3E4141413EFB
:100E40007F090909063E4151215E7F09192946267D
:100E50004949493203017F01033F4040403F1F2081
:100E600040201F3F4038403F631408146303047858
:100E700004036159494D43007F4141410204081078
:100E800020004141417F04020102044040404040B3
:100E9000000307080020545478407F284444383821
:100EA00044444428384444287F3854545418000893
:100EB0007E090218A4A49C787F0804047800447D6D
:100EC00040002040403D007F1028440000417F400A
:100ED000007C047804787C0804047838444444385E
:100EE000FC1824241818242418FC7C08040408483E
:100EF0005454542404043F44243C4040207C1C208F
:100F000040201C3C4030403C44281028444C9090E9
:100F1000907C4464544C4400083641000000770043
:100F200000004136080002010204023C2623263C50
:100F30001EA1A161123A4040207A385454555921DB
:100F400055557941215454784121555478402054C5
:100F50005579400C1E527212395555555939545411
:100F6000545939555454580000457C410002457D80
:100F7000420001457C40F0292429F0F0282528F082
:100F80007C545545002054547C547C0A097F4932D6
:100F9000494949323248484832324A4848303A4151
:100FA00041217A3A42402078009DA0A07D394444F6
:100FB00044393D4040403D3C24FF2424487E494381
:100FC000662B2FFC2F2BFF0929F620C0887E0903F2
:100FD00020545479410000447D413048484A323819
:100FE0004040227A007A0A0A727D0D19317D262945
:100FF000292F28262929292630484D40203808083D
:10100000080808080808382F10C8ACBA2F10283470
:10101000FA00007B000008142A142222142A140863
:101020009500220095AA005500AAAA55AA55AA0023
:101030000000FF00101010FF00141414FF00101027
:10104000FF00FF1010F010F0141414FC001414F73B
:1010500000FF0000FF00FF1414F404FC1414171028
:101060001F10101F101F1414141F00101010F00078
:101070000000001F101010101F10101010F01000B2
:101080000000FF101010101010101010FF100000C2
:1010900000FF140000FF00FF00001F10170000FCFD
:1010A00004F414141710171414F404F40000FF00CF
:1010B000F714141414141414F700F7141414171458
:1010C00010101F101F141414F4141010F010F0005E
:1010D000001F101F0000001F14000000FC1400007F
:1010E000F010F01010FF10FF141414FF1410101063
:1010F0001F00000000F010FFFFFFFFFFF0F0F0F016
:10110000F0FFFFFF0000000000FFFF0F0F0F0F0FA9
:1011100038444438447C2A2A3E147E0202060602E1
:101120007E027E0263554941633844443C04407E5C
:10113000201E2006027E020299A5E7A5991C2A49D5
:101140002A1C4C7201724C304A4D4D303048784860
:1011500030BC625A463D3E494949007E0101017E4C
:101160002A2A2A2A2A44445F444440514A4440409F
:10117000444A51400000FF0103E080FF00000808DE
:101180006B6B083612362436060F090F060000185E
:10119000180000001010003040FF0101001F010185
:1011A0001E00191D1712003C3C3C3C0000000000D2
:1011B000451A11241FBECFEFDAE0DEBFCDBF11E02C
:1011C000A0E0B1E0E0E0F6E302C005900D92AC359E
:1011D000B107D9F725E0ACE5B1E001C01D92A73F0A
:1011E000B207E1F718E0C9EDD8E004C02197FE018D
:1011F0000E94F31AC83DD107C9F70E949D130C94B1
:10120000FE1A0C94000020917301211103C08FEF8E
:101210009FEF08955FB7F89422E02093E9002091B2
:10122000F20030E01216130614F421E030E0422FF1
:10123000FC0184E6415038F0289880939D059091F8
:10124000F1009193F7CF2115310521F08091F20043
:10125000882319F05FBFC90108958BE68093E800E9
:10126000F9CF2FB7F89483E08093E9009091E800DC
:10127000892F807295FF04C09091F20080E4891B51
:101280002FBF08958091950581110DC082E0809354
:10129000910584E080939205109294051092930535
:1012A00081E08093950581E995E00895CF93DF93E0
:1012B0001F92CDB7DEB76983DC01ED91FC9102800E
:1012C000F381E02D41E050E0BE016F5F7F4F099553
:1012D0000F90DF91CF91089583E08093E900809192
:1012E000F200882319F08AE38093E80008950E94B1
:1012F000310990E00895CF93DF931F92CDB7DEB709
:10130000FC018485958597FD05C02FEF3FEF35875C
:1013100024870BC0CE0101960E940309019719F49E
:10132000898190E002C08FEF9FEF0F90DF91CF9106
:1013300008950F931F93CF93DF931F92CDB7DEB71E
:101340008C01FC018485958597FF0EC0CE01019626
:101350000E940309019719F4898190E002C08FEF80
:101360009FEFF80195878487F801848595850F9014
:10137000DF91CF911F910F910895FC018485958590
:1013800097FD0BC09FB7F89482E08093E9008091AD
:10139000F2009FBF90E0019608959FB7F89482E015
:1013A0008093E9008091F2009FBF90E00895409102
:1013B0008D0550918E0520918B0530918C0542173B
:1013C0005307B4F49091E8009570E1F39091E80030
:1013D00092FD19C08093F10080918D0590918E054A
:1013E00001968F739927892B19F48EEF8093E8006B
:1013F00080918D0590918E05019690938E05809336
:101400008D0581E0089580E00895DF92EF92FF92CC
:101410000F931F93CF93DF93D82E8A017B01E40EA5
:10142000F51EEB01CE15DF0571F0D7FE03C0FE01FE
:10143000849101C088810E94D70921968111F2CF41
:101440008FEF9FEF01C0C801DF91CF911F910F91E6
:10145000FF90EF90DF9008950F931F93CF93DF934A
:101460001F92CDB7DEB782E0898342E450E06BEA99
:1014700076E080E80E94050A0E944209DC0112968B
:101480000D911C9113970115110589F0D801ED916B
:10149000FC910280F381E02DBE016F5F7F4FC80198
:1014A000099597FD04C0F80100851185ECCF89816D
:1014B0000F90DF91CF911F910F910895615030F0FF
:1014C0002091F100FC0120830196F8CF289884E652
:1014D00080939D05089580E0E4E7F1E081118FEFAE
:1014E000002481938193819381930394D1F708958C
:1014F000E4E7F1E0A0E0B8E000800EBC8111012C2F
:101500001197A0FDFDCF0192B9F70DB40895009792
:1015100069F0FC0101900020E9F73197AF01481B09
:10152000590BBC0184E795E00C947E0E80E090E0BE
:1015300008958F929F92AF92BF92CF92DF92EF92D7
:10154000FF920F931F93CF93DF93CDB7DEB7A19791
:101550000FB6F894DEBF0FBECDBF6C01990FEE0839
:10156000FF08F7FE2BC06DE284E795E00E94A80E0D
:101570008C0122273327A9012C193D094E095F0947
:1015800019A2CE0181967C019AE0892E912CA12C82
:10159000B12CCA01B901A50194010E94D11A605D64
:1015A000F70162937F01211531054105510589F746
:1015B000CF010E94870A800F911F1DC0A7019601CD
:1015C00019A28E010F5D1F4F8AE0C82ED12CE12C8D
:1015D000F12CCA01B901A70196010E94D11A605DE0
:1015E000F80162938F01211531054105510589F7F5
:1015F000CF010E94870AA1960FB6F894DEBF0FBEF6
:10160000CDBFDF91CF911F910F91FF90EF90DF90B1
:10161000CF90BF90AF909F908F9008951F920F92A0
:101620000FB60F9211248F939F938091E1009091B8
:10163000E100937F9093E10083FF0FC01092E900D7
:1016400091E09093EB001092EC0092E39093ED0008
:101650001092730198E09093F00082FF20C093E015
:101660009093E9009091F200992319F09AE39093F6
:10167000E80090919005992339F090919005915050
:1016800090939005992389F190919D05992339F0C4
:1016900090919D05915090939D05992341F184FF70
:1016A00010C08091E2008E7E81608093E200809184
:1016B000E1008F7E8093E100809172018E7E8061D7
:1016C00011C080FF16C08091E2008E7E8061809301
:1016D000E2008091E1008E7E8093E10080917201B2
:1016E0008E7E81608093720104C05D9ACDCF289A6E
:1016F000D6CF9F918F910F900FBE0F901F9018958E
:101700001F920F920FB60F921124CF92DF92EF9299
:10171000FF920F931F932F933F934F935F936F937A
:101720007F938F939F93AF93BF93EF93FF93CF9349
:10173000DF93CDB7DEB76C97DEBFCDBF1092E90067
:101740008091E80083FFFBC168E0CE0145960E94CE
:101750005E0A82EF8093E8008D8987FF05C0909133
:10176000E80090FFFCCF03C09EEF9093E800982F15
:10177000907609F0C6C09E894F89588D2F89F88CC4
:1017800091110CC0803829F4809171018093F1008F
:1017900002C01092F1001092F10045C1913051F455
:1017A000811141C14130510509F03DC18091710164
:1017B0008D7F0BC0933061F4811135C141305105EB
:1017C00009F031C1809171018260809371012BC158
:1017D000953049F48091E80080FFFCCF822F80682B
:1017E0008093E30020C1963009F05EC00B8D1C8D04
:1017F00022E01092E90010928E0510928D05F212EF
:1018000032C010928C0510928B050E942C0A99E030
:10181000BE016F5F7F4FDB01E92F1D92EA95E9F76B
:101820009983FA8291E09E8390EA98879AEF99874C
:1018300020918D0530918E05275F3F4F3C832B8390
:101840008D831092E90010928E0510928D051093F1
:101850008C0500938B0549E050E080E00E94050A6A
:101860000E942C0AE0C010938C0500938B050E9407
:101870004209DC0112960D911C9113970115110577
:1018800009F4BBC0D801ED91FC910480F581E02DF5
:10189000BE016B5E7F4FC8010995009709F0C7C074
:1018A000F80100851185EACF973009F445C19830D9
:1018B00021F481E08093F100B6C0993009F0B3C003
:1018C000837009F039C1EDE0F1E081E031E096E3A9
:1018D0002081211109C08EE78093EA001092EA006E
:1018E0008F89809373019FC08093E9003093EB0050
:1018F00021912093EC009093ED008F5F873041F7AA
:10190000EACF8B8D9C8D1092E90010928E0510927B
:101910008D0590938C0580938B05898D811153C023
:101920008E899D89913A49F4813209F005C147E0D9
:1019300050E064E071E080E0BBC0913209F0FCC08F
:10194000833269F48F89988DA0E0B0E08093000124
:1019500090930101A0930201B093030164C080320F
:1019600069F48091E80082FFFCCF67E084E091E0B9
:101970000E945E0A8BEF8093E80055C0823209F026
:1019800052C08F8980930B01EEEFFFE78591949110
:101990008B3F9C4D19F0E0E0F8E002C0EEEFFAE07A
:1019A0008091040190910501A0910601B091070179
:1019B000803B9440A105B10509F09EC080910B01C8
:1019C00080FF79C099C00E944209FC010281138105
:1019D0000115110509F4B0C0D801ED91FC910190F9
:1019E000F081E02DBE016B5E7F4FC801099581112A
:1019F0001AC0F80100851185EBCFF1E0FF1609F45C
:101A00004EC0F3E0FF1298C08F89882309F44AC0C2
:101A1000823089F440E860E18FE097E00E94101A7C
:101A2000882309F489C08EEF8093E80088C01816D7
:101A30001906CCF381C0813029F440E86BE083E0E3
:101A400097E0ECCF833009F077C00E944209DC01B7
:101A50001296ED90FC9013978E010F5F1F4F680157
:101A6000E114F10479F0D701ED91FC910680F78142
:101A7000E02DB801C7010995080F111DF701E08499
:101A8000F184EECFD8011C92F60101900020E9F715
:101A90003197BF016C197D0940E0C601BFCF61EFEE
:101AA00076E002C06DEE76E0FB01449150E080E804
:101AB0000E94050AB8CFEE3F2AE0F20751F080817C
:101AC00091818737A7E79A0721F09093FF0A8093C7
:101AD000FE0A87E797E79183808380916000809377
:101AE0008F059BE088E10FB6F894A895809360007D
:101AF0000FBE9093600097CF808191818737974781
:101B000009F091CFA8958091600088618093600072
:101B100080918F0580936000EE3FBAE0FB0739F0BB
:101B20008091FE0A9091FF0A918380837CCF10926E
:101B3000FF0A1092FE0A77CF81E28093EB006C9649
:101B40000FB6F894DEBF0FBECDBFDF91CF91FF91EE
:101B5000EF91BF91AF919F918F917F916F915F9125
:101B60004F913F912F911F910F91FF90EF90DF9038
:101B7000CF900F900FBE0F901F9018958F929F924D
:101B8000AF92BF92CF92DF92EF92FF926B017C01F6
:101B90000E942E134B015C01C114D104E104F10435
:101BA000F1F00E942E13DC01CB0188199909AA09D2
:101BB000BB09883E9340A105B10570F321E0C21A2C
:101BC000D108E108F10888EE880E83E0981EA11C78
:101BD000B11CC114D104E104F10419F7DDCFFF9069
:101BE000EF90DF90CF90BF90AF909F908F9008952F
:101BF0008F929F92AF92BF92CF92DF92EF92FF921D
:101C00000F931F93CF93DF936C017B018A01809127
:101C10000B01882309F45CC080917301882309F4C7
:101C200057C08091720180FF05C08091E000826002
:101C30008093E000E801B12C8AEFA82E93E0892E72
:101C40002AE3922E209711F4BB20D9F10E9431098A
:101C500081110AC0AA94AA20D9F161E070E080E065
:101C600090E00E94BE0DEECF282F30E0C217D307C0
:101C70000CF48C2F9FB7F8948092E9002091E80033
:101C800025FF1DC0282F30E0C21BD30BF701815068
:101C900020F041914093F100FACFE20EF31EBB20F9
:101CA00019F09092E8000AC08091E80085FD07C015
:101CB0009092E800BB24B394209709F0B12C9FBF09
:101CC000C1CF5D9884E6809390051016110644F00C
:101CD00081E090E0F6019383828380E090E001C090
:101CE000C801DF91CF911F910F91FF90EF90DF908E
:101CF000CF90BF90AF909F908F900895CF92DF923A
:101D0000EF92FF920F931F93CF93DF936C017A01B1
:101D10008B01C0E0D0E0CE15DF0581F0D8016D91D8
:101D20008D01D601ED91FC910190F081E02DC6016D
:101D30000995892B11F02196EECF7E01C701DF9125
:101D4000CF911F910F91FF90EF90DF90CF9008956A
:101D50002F923F924F925F926F927F928F929F92BB
:101D6000AF92BF92CF92DF92EF92FF920F931F93A9
:101D7000CF93DF93CDB7DEB728970FB6F894DEBFC9
:101D80000FBECDBF9D838C836A30A1F4DC015596D4
:101D90002C91559751968D919C915297B8E02B9F1D
:101DA000800D911D1124EC81FD81928B818B108A15
:101DB0001786C6C06D3009F4C3C0AC81BD811F96C3
:101DC0008D919C91509780389105BCF0EC81FD81FC
:101DD0002589422F50E087859089F6E02F9F800D5E
:101DE000911D1124AC81BD8150969C938E931F97B9
:101DF00056962C9121118FC0A3C0EC81FD81E18802
:101E0000F288F0E4EF16F1040CF7AC81BD81559631
:101E1000BC91BE839C01E5E0BE9F200D311D1124C5
:101E2000121613069CF6CB2ED12C970158E0B59FC5
:101E3000200D311D11241216130644F6AC81BD810C
:101E400054965C90549753964C90B5E06B9FF0017C
:101E500011249F012055334F38872F83912C30E177
:101E6000732EEF81F8858490F5E09F1201C0812CDC
:101E7000870128E0622E80FE02C0542D01C0552D3E
:101E8000511103C0541409F433C09C01F52FF170B3
:101E9000322E622F681B4E81641750F5B801A62FB1
:101EA000A01B5E81A51708F520383105D8F46034F1
:101EB0007105C0F45B01A501E1E041FDE4E040FDF6
:101EC000EE0F42FDE295487F749ED0011124A30DD0
:101ED000BA83A983AC58BE4FBC90BE2AF11101C091
:101EE000BE26BC926F5F7F4FDACF2F5F3F4FD0CFC0
:101EF00086946A940C0D1D1D6110BDCF93948C0DBA
:101F00009D1D2F8138852F5F3F4F38872F8336E007
:101F10009312A7CF5BCF6AEF64039001659F300DEA
:101F2000112420583F4F2817390754F48C819D8184
:101F3000DC01ED91FC910190F081E02D6AE00995C2
:101F400081E090E028960FB6F894DEBF0FBECDBFBB
:101F5000DF91CF911F910F91FF90EF90DF90CF9085
:101F6000BF90AF909F908F907F906F905F904F90B9
:101F70003F902F9008950895089580E090E008958F
:101F80000E94F91A2D9A0895BC0180E090E00C940B
:101F9000BE0D8FB18095807F669B88601C9B84609E
:101FA00008950C94BB1A2F923F924F925F926F92BA
:101FB0007F928F929F92AF92BF92CF92DF92EF92D9
:101FC000FF920F931F93CF93DF93CDB7DEB7609748
:101FD0000FB6F894DEBF0FBECDBFEB82E22EF12C20
:101FE000F88AEF869701280F391F37FD3CC18038EA
:101FF00091050CF038C19B01200F311D37FD33C115
:10200000603471050CF02FC1DB0177FF04C0AA27F3
:10201000BB27A61BB70BA770BB279B0177FF02C08E
:10202000295F3F4FE3E035952795EA95E1F777FF84
:1020300008C02150310968E070E0FB01EA1BFB0B8E
:10204000DF01E02FE695E695E695F0E0077009F0F0
:102050003196B9017695762F662777956795680F43
:10206000791F6C587E4F7F01E20EF31EFF82EE82D5
:10207000C12CD12CE8E0F0E08F010A1B1B0B1D8363
:102080000C83EE80FF80E216F30609F4ECC02830E2
:10209000310509F4E8C02F3F0FEF30070CF4D6C02C
:1020A0008B0100581F4F198708875B014B013B01CB
:1020B0002C0118011A83098300E010E0EF84F888EE
:1020C0000E151F050CF0C2C0E0E84E16510409F4CD
:1020D000BDC057FC9FC02F3FFFEF3F0709F4BFC0B3
:1020E0007801EC0CFD1CEB81E130A9F4F701E40F61
:1020F000F51FE491EE2EF12CF7010A2E02C0EE0F2F
:10210000FF1F0A94E2F7FB87EA87F401E080FA8573
:10211000EF2AF4012CC0FB81F11116C0F701E40F86
:10212000F51FE491F0E00A2E02C0EE0FFF1F0A94A3
:10213000E2F77F01E094F094FB86EA86F501E08007
:10214000FA85EF22F50113C0F701E40FF51FE491C2
:10215000F0E07F010A2E02C0EE0CFF1C0A94E2F7A9
:10216000FB86EA86F301E080FA85EF26F301E08240
:10217000109709F44FC02730310509F44BC078019E
:10218000EC0CFD1CFB81F130B1F4F701E40FF51FFD
:10219000E491F0E07F010C8002C0F594E7940A948A
:1021A000E2F7FB86EA86E885F985E080FA85EF2A82
:1021B000E885F9852EC0FB81F11118C0F701E40F05
:1021C000F51FE491F0E00C8002C0F595E7950A94C4
:1021D000E2F77F01E094F094FB86EA86E981FA81D8
:1021E000E080FA85EF22E981FA8113C0F701E40F5C
:1021F000F51FE491F0E07F010C8002C0F594E794B4
:102200000A94E2F7FB86EA86F101E080FA85EF2680
:10221000F101E0820F5F1F4FE885F9853196F9875C
:10222000E887E981FA813196FA83E983FFEF2F1A73
:102230003F0AEFEF4E1A5E0AFFEF6F1A7F0AEFEFC9
:102240008E1A9E0AFFEFAF1ABF0A38CF2F5F3F4F9B
:1022500060587F4FEF84F888CE0CDF1C12CF1097A8
:1022600009F08DCFD7CF60960FB6F894DEBF0FBEC2
:10227000CDBFDF91CF911F910F91FF90EF90DF9035
:10228000CF90BF90AF909F908F907F906F905F9016
:102290004F903F902F900895CF93DF931092640159
:1022A000C0E9D0E080E4888380E493E090939900D3
:1022B000809398008EE190E00E94C40F1092640118
:1022C0001882DF91CF910895EF920F93CF93DF9310
:1022D0000E946B0A10928605109285058AE390E0B1
:1022E00090938405809383058091620190916301AE
:1022F0000E94990AEE24E39400E420E840EB58E0C1
:1023000060E070E080E090E00E94D30F80915E0179
:1023100090915F01892B01F5E12C0BE027E146E26A
:1023200058E06BE270E087E190E00E94D30F80916B
:102330005E0190915F012EE2289FA001299F500D20
:1023400011244456584FEE24E39427E16BE270E0E9
:1023500087E190E00E94D30F80915E0190915F0130
:10236000019701F5E12C0BE027E144E558E06BE231
:1023700070E080E390E00E94D30F80915E01909125
:102380005F012EE2289FA001299F500D1124445681
:10239000584FEE24E39427E16BE270E080E390E095
:1023A0000E94D30F80915E0190915F01029701F529
:1023B000E12C0BE027E142E858E06BE270E089E4B1
:1023C00090E00E94D30F80915E0190915F012EE218
:1023D000289FA001299F500D11244456584FEE24E8
:1023E000E39427E16BE270E089E490E00E94D30F70
:1023F00080915C0190915D010197B1F4E12C08E0BE
:1024000028E044E957E068E070E088E690E00E9448
:10241000D30FEE24E39428E04CE857E068E070E046
:1024200088E690E00E94D30F80915C0190915D015D
:10243000029759F5E12C08E028E044E957E068E00C
:1024400070E088E690E00E94D30FEE24E39428E049
:102450004CE857E068E070E088E690E00E94D30F17
:10246000E12C28E044E957E068E070E080E790E084
:102470000E94D30FEE24E39428E04CE857E068E094
:1024800070E080E790E00E94D30FC0915C01D09192
:102490005D01C330D10509F044C0E12C08E028E01B
:1024A00044E957E068E070E088E690E00E94D30FCE
:1024B000EE24E39428E04CE857E068E070E088E61A
:1024C00090E00E94D30FE12C28E044E957E068E057
:1024D00070E080E790E00E94D30FEE24E39428E0C0
:1024E0004CE857E068E070E080E790E00E94D30F8E
:1024F000E12C28E044E957E068E070E088E790E0EC
:102500000E94D30FEE24E39428E04CE857E068E003
:1025100070E088E790E00E94D30FD0936601C093EB
:10252000650180915E0190915F01009761F12091BA
:102530006001309161012430310529F5C2E1C89F65
:10254000A001C99F500D11244A5A584FE12C06E0B2
:1025500022E166E370E08AE190E00E94D30F80916F
:102560005E0190915F01C89FA001C99F500D112489
:10257000405E584FEE24E39422E166E370E08AE186
:1025800090E00E94D30F80915E0190915F018130B5
:10259000910561F120916001309161012C3031058C
:1025A00029F5C2E1C89FA001C99F500D11244A5AC4
:1025B000584FE12C06E022E166E370E083E390E00F
:1025C0000E94D30F80915E0190915F01C89FA0018E
:1025D000C99F500D1124405E584FEE24E39422E130
:1025E00066E370E083E390E00E94D30F80915E0188
:1025F00090915F018230910561F1209160013091ED
:1026000061012231310529F5C2E1C89FA001C99FAE
:10261000500D11244A5A584FE12C06E022E166E39E
:1026200070E08AE490E00E94D30F80915E01909167
:102630005F01C89FA001C99F500D1124405E584FF3
:10264000EE24E39422E166E370E08AE490E00E94E5
:10265000D30FDF91CF910F91EF9008953FB7F8948A
:102660008091F3059091F405A091F505B091F605E0
:1026700026B5A89B05C02F3F19F00196A11DB11DDD
:102680003FBFBA2FA92F982F8827820F911DA11D18
:10269000B11DBC01CD0142E0660F771F881F991F55
:1026A0004A95D1F708951F920F920FB60F921124F9
:1026B0002F933F938F939F93AF93BF938091EE059A
:1026C0009091EF05A091F005B091F1053091F205E0
:1026D00023E0230F2D3720F40196A11DB11D05C065
:1026E00026E8230F0296A11DB11D2093F2058093C9
:1026F000EE059093EF05A093F005B093F10580915E
:10270000F3059091F405A091F505B091F6050196B9
:10271000A11DB11D8093F3059093F405A093F505D9
:10272000B093F605BF91AF919F918F913F912F91FB
:102730000F900FBE0F901F901895789484B582600B
:1027400084BD84B5816084BD85B5826085BD85B555
:10275000816085BD80916E00816080936E001092D3
:10276000810080918100826080938100809181004E
:1027700081608093810080918000816080938000DF
:10278000809191008260809391008091910081609E
:10279000809391008091900081608093900080915F
:1027A000C10084608093C1008091C10082608093E9
:1027B000C1008091C10081608093C1008091C300FD
:1027C00081608093C3008091C00082608093C000CC
:1027D0008091C20081608093C20080917A00846001
:1027E00080937A0080917A00826080937A00809151
:1027F0007A00816080937A0080917A00806880936B
:102800007A001092730110927101109272018091FE
:10281000D70081608093D70080EA8093D80089B583
:10282000806189BD89B5826089BD09B400FEFDCF94
:1028300061E070E080E090E00E94BE0D8091D800E1
:102840008F7C80618093D8008091E000807F8093AE
:10285000E0008091E1008E7E8093E1008DE0809326
:10286000E200559A209A81EC80937C0085B1806FBC
:1028700085B984B1877E84B984B1876E84B95E9A44
:102880005F988AB1806D8AB9769A6E9881B3806FAD
:1028900081BB899880B38D7080BB80E58CBD81E061
:1028A0008DBD85E090E00E94C40F5F9A85E090E0C6
:1028B0000E94C40F5E985C98ECE5F1E084918EBDB7
:1028C00000000DB407FEFDCF319641E0E936F40774
:1028D000A9F75C9A81E8809364008091650081602B
:1028E0008093650080E00E94780A0E94C90F87FFEC
:1028F00024C05C9885EA8EBD00000DB407FEFDCFB4
:102900005C9A2E982F982D98809164008062809315
:10291000640081E083BF889513BEFCCF2D980E9490
:10292000C90F8478843871F00E94C90F8471843192
:1029300031F188EC90E00E94C40F0E94C90F82FD23
:10294000EDCF3AC00E94C20F88EC90E00E94C40F05
:102950002F9882E090E00E94BB1A8F3F29F06FEF22
:1029600082E090E00E94C31A84EF91E00E94C40FBD
:102970002F9A0E94C90F84788438D9F3D5CF0E944A
:10298000C20F88EC90E00E94C40F2E9882E090E085
:102990000E94BB1A882329F060E082E090E00E9448
:1029A000C31A84EF91E00E94C40F2E9A0E94C90FAF
:1029B00084718431D9F3BDCF0E94C20F82E090E0D0
:1029C0000E94D10F882319F03E9A3F9A02C03E9888
:1029D0003F9881E090E00E94D10F182F147081FF82
:1029E0003BC011112E98C0EFDFEF0E94C90F86FF88
:1029F00005C02E9A2F9A0E94C20F2EC0112329F0D3
:102A0000C430D10511F42E9A2F9881E00E94780AE3
:102A1000EE24E39400E128E54CEA50E0BE0184E1B5
:102A200090E00E94D30F80E00E94780A8FE090E04F
:102A30000E94C40F2196C931D105B9F6112311F0B6
:102A40002F9A2D9880E991E00E94C40F0E94C20F36
:102A500084E795E00E94761A82E390E00E94C40F1A
:102A60000E94C90F8111F8CF0E946B0A109286054F
:102A700010928505109284051092830584E6809358
:102A80007F05109290008AE080939100AA24A3947D
:102A9000B12C42E0C42ED12C58E0252E312C86EAF0
:102AA000882E86E0982E9EE0492E512C2CE0622E36
:102AB000712C0E946B0A1092860510928505109267
:102AC0008405109283058FB7F8944091EE055091DC
:102AD000EF056091F0057091F1058FBF8091800541
:102AE000942F981B892F90918105992329F0809329
:102AF00082051092810569C490917F05891748F479
:102B00008F5F891708F061C481E083BF889513BE89
:102B10005CC481E0809381054093800580917B05B2
:102B200090917C05019690937C0580937B05809124
:102B30006401882331F0815080936401882309F473
:102B40004CC4C0916501D0916601C130D10509F432
:102B500062C01CF4CD2B49F038C4C230D10509F451
:102B6000CDC3239709F4D3C330C47092700160922F
:102B70006F011092840510928305109286051092C1
:102B8000850589E391E00E94870A88E290E09093AE
:102B900084058093830510928605109285058091A7
:102BA0006D0190916E010E94990A86E490E09093E5
:102BB00084058093830510928605109285058CE329
:102BC00091E00E94870A8AE590E0909384058093C3
:102BD000830510928605109285058091620190917F
:102BE00063010E94990AEE24E39400E420E84BEA92
:102BF00052E060E070E080E090E00E94D30F80E05F
:102C00000E94780A0E94C90F83FFDFC310926301FC
:102C10001092620177C30E9464110E94C90F85FF60
:102C200007C08091690190916A01892B09F4D8C38A
:102C300080915E0190915F011816190624F01092A0
:102C40005F0110925E010E94C90F86FF07C080914C
:102C5000670190916801892B09F4D2C380915E01CC
:102C600090915F01029724F0D0925F01C0925E01C3
:102C70000E94C90F85FD04C010926A01109269017B
:102C80000E94C90F86FD04C010926801109267016E
:102C900020915E0130915F0180916001909161010E
:102CA0002115310521F484309105C1F40DC0213086
:102CB000310521F48C30910589F406C022303105AC
:102CC00069F48231910551F44091620150916301A0
:102CD0004F5F5F4F509363014093620185319105CF
:102CE00054F040916201509163014F5F5F4F5093E8
:102CF000630140936201232BC9F00497B9F48091DA
:102D00005C0190915D01019690935D0180935C015F
:102D10008FE08093640180E480939000909299000A
:102D200080929800D0926601C092650180915E0108
:102D300090915F010197E9F08091600190916101AC
:102D40000C97B9F480915C0190915D01019690938C
:102D50005D0180935C018FE08093640180E4809347
:102D600090009092990080929800D0926601C09253
:102D7000650180915E0190915F010297E9F0809179
:102D80006001909161014297B9F480915C0190914A
:102D90005D01019690935D0180935C018FE08093CB
:102DA000640180E480939000909299008092980052
:102DB000D0926601C092650120916B0130916C0147
:102DC0002F5F3F4F30936C0120936B018091620124
:102DD00090916301833391055CF1853691051CF474
:102DE0008AE090E014C0873991052CF4309270018C
:102DF00020926F011DC08B3F91051CF486E090E08E
:102E000006C08D3241E094073CF484E090E090935A
:102E1000700180936F010CC08F3591402CF4D092DB
:102E20007001C0926F0104C0B0927001A0926F0156
:102E300080916F01909170012817390744F1109229
:102E40006C0110926B01809160019091610101967B
:102E5000909361018093600180E48093900087EEFD
:102E600093E090939900809398008EE190E00E9407
:102E7000C40F1092640110929000809160019091B3
:102E80006101469724F01092610110926001C09197
:102E90006001D09161012097A9F4E12C07E027E0BF
:102EA0004AE052E06DE070E084E190E00E94D30FD0
:102EB000EE24E39427E049E651E06DE070E084E120
:102EC00090E017C0C130D105B9F4E12C07E027E04C
:102ED00041E152E063E170E088E190E00E94D30FAD
:102EE000EE24E39427E040E751E063E170E088E1FD
:102EF00090E00E94D30F4EC0C230D105B9F4E12C4E
:102F000007E027E048E152E06BE170E08AE190E001
:102F10000E94D30FEE24E39427E047E751E06BE1F2
:102F200070E08AE190E00E94D30F4EC0C330D1051B
:102F3000B9F4E12C07E027E04FE152E063E270E0F2
:102F40008CE190E00E94D30FEE24E39427E04EE75B
:102F500051E063E270E08CE190E00E94D30F4EC03C
:102F6000C430D105B9F4E12C07E027E046E252E095
:102F70006BE270E08FE190E00E94D30FEE24E394C7
:102F800027E045E851E06BE270E08FE190E00E94BD
:102F9000D30F68C0C530D105B9F4E12C07E027E0B4
:102FA0004DE252E063E270E083E290E00E94D30FD2
:102FB000EE24E39427E04CE851E063E270E083E222
:102FC00090E00E94D30F68C0C630D105B9F4E12C5F
:102FD00007E027E044E352E06BE170E085E290E037
:102FE0000E94D30FEE24E39427E043E951E06BE124
:102FF00070E085E290E00E94D30F68C0C730D10531
:10300000B9F4E12C07E027E04BE352E062E170E025
:1030100087E290E00E94D30FEE24E39427E04AE990
:1030200051E062E170E087E290E00E94D30F68C057
:10303000C830D105B9F4E12C07E027E042E452E0C2
:103040006DE070E08CE290E00E94D30FEE24E394F8
:1030500027E041EA51E06DE070E08CE290E00E94F0
:10306000D30F68C0C930D105B9F4E12C07E027E0DF
:1030700049E452E062E170E082E390E00E94D30F05
:10308000EE24E39427E048EA51E062E170E082E355
:1030900090E00E94D30F68C0CA30D105B9F4E12C8A
:1030A00007E027E040E552E06BE170E083E390E069
:1030B0000E94D30FEE24E39427E04FEA51E06BE146
:1030C00070E083E390E00E94D30F68C0CB30D1055D
:1030D000B9F4E12C07E027E047E552E063E270E055
:1030E00085E390E00E94D30FEE24E39427E046EBC3
:1030F00051E063E270E085E390E00E94D30F68C086
:10310000CC30D105B9F4E12C07E027E04EE552E0E0
:103110006BE270E088E390E00E94D30FEE24E3942A
:1031200027E04DEB51E06BE270E088E390E00E9415
:10313000D30F68C0CD30D105B9F4E12C07E027E00A
:1031400045E652E063E270E08DE390E00E94D30F29
:10315000EE24E39427E044EC51E063E270E08DE379
:1031600090E00E94D30F66C0CE30D105B9F4E12CB7
:1031700007E027E04CE652E06AE170E08EE390E081
:103180000E94D30FEE24E39427E04BEC51E06AE178
:1031900070E08EE390E00E94D30F64C0CF30D10581
:1031A000B9F4E12C07E027E043E752E064E170E086
:1031B00083E490E00E94D30FEE24E39427E042EDF5
:1031C00051E064E170E083E490E00E94D30F62C0BC
:1031D000C031D105B9F4E12C07E027E04AE752E01D
:1031E0006AE170E089E490E00E94D30FEE24E3945A
:1031F00027E049ED51E06AE170E089E490E00E9447
:10320000D30F60C0C131D105A9F4E12C07E027E05C
:1032100041E852E063E270E08DE490E00E94D30F59
:10322000EE24E39427E040EE51E063E270E08DE4A9
:1032300090E05EC0C231D105A9F4E12C07E027E09F
:1032400048E852E06BE270E081E590E00E94D30F25
:10325000EE24E39427E047EE51E06BE270E081E575
:1032600090E046C0C331D105A9F4E12C07E027E086
:103270004FE852E063E270E086E590E00E94D30FF1
:10328000EE24E39427E04EEE51E063E270E086E541
:1032900090E02EC0C431D105A9F4E12C07E027E06D
:1032A00046E952E06DE170E08CE590E00E94D30FBA
:1032B000EE24E39427E045EF51E06DE170E08CE50A
:1032C00090E016C06597B1F4E12C07E027E04DE9E6
:1032D00052E064E270E080E690E00E94D30FEE24BA
:1032E000E39427E04CEF51E064E270E080E690E088
:1032F0000E94D30F80E00E94780A67C0109261019B
:1033000010926001B0926601A09265015EC00E94B9
:103310006B0A109286051092850510928405109212
:103320008305809162019091630120916D0130913C
:103330006E018217930724F090936E0180936D01C4
:103340000E94641183E290E090938405809383054A
:10335000509286054092850581E491E00E94870A9B
:1033600084E290E0909384058093830550928605D3
:103370004092850581E491E00E94870A8CE190E00B
:10338000909384058093830588E190E0909386056F
:10339000809385058DE491E00E94870A80E00E9479
:1033A000780A0E94C90F82FF10C010925D0110922E
:1033B0005C01109261011092600170927001609244
:1033C0006F01109266011092650180E090E0892BF8
:1033D00009F46FCB0E94000062CB10929000B1CB39
:1033E000D0936A01C093690180915E0190915F0161
:1033F000019790935F0180935E010E944C1118CC5D
:10340000B0926801A092670180915E0190915F0186
:10341000019690935F0180935E010E944C111ECC37
:10342000DF92EF92FF920F931F93CF93DF93D82EEB
:10343000F92EE42E062F10E0C8010196880F0E9495
:10344000D70983E00E94D709CD2DDF2D0C0F1D1F5A
:10345000C017D10789F0E7FE03C0FE01849101C0C7
:1034600088810E94D709F82E80E00E94D7098F2119
:1034700021968111EDCF01C081E0DF91CF911F91A5
:103480000F91FF90EF90DF900895EEE9F5E0138241
:10349000128288EE93E0A0E0B0E084839583A68357
:1034A000B78387E191E0918380838FEF9FEF9587CA
:1034B0008487E4E7F5E0138212821186128680E1A8
:1034C000838710861782158689E291E09183808335
:1034D00087E391E095838483108A1786128A118A84
:1034E00081E0838B148A858B168A08950F931F932E
:1034F000CF93DF938C0181E090E00E94D10F80FF99
:1035000032C08AE090E00E94D10F9FEF980F9E3F5B
:1035100050F522E330E0D80150963C932E931F974C
:1035200028E330E052963C932E935197CBE0D0E0C5
:10353000D801ED91FC910190F081E02D682FC80138
:103540000995CE010E94D10F2196C131D10581F795
:1035500080E00E94780A88EE93E0DF91CF911F917E
:103560000F910C94C40FDF91CF911F910F9108958B
:1035700004970C94761AF999FECF92BD81BDF89A02
:10358000992780B50895262FF999FECF1FBA92BDCD
:1035900081BD20BD0FB6F894FA9AF99A0FBE019634
:1035A0000895A1E21A2EAA1BBB1BFD010DC0AA1F84
:1035B000BB1FEE1FFF1FA217B307E407F50720F09C
:1035C000A21BB30BE40BF50B661F771F881F991F17
:1035D0001A9469F760957095809590959B01AC0160
:1035E000BD01CF010895EE0FFF1F0590F491E02D6E
:1035F000099481E090E0F8940C94FE1AF894FFCFBF
:10360000FFFFFFFF00E100000000000000C180811B
:10361000000000000000005609F80D77096C09BD94
:10362000097B09990900000000A80E7E0EBD0FBCA1
:103630000F761AFCFF0000B81A48492D53433A2070
:10364000002047414D45204F5645522000205B4207
:0C3650005D203E205469746C6520000071
:2070000055C000006EC000006CC000006AC0000068C0000066C0000064C0000062C0000043
:2070200060C000005EC00000F2C400005AC0000058C0000056C0000054C0000052C00000EE
:2070400050C0000078C000004CC000004AC0000048C0000046C0000044C0000042C00000BE
:2070600040C000003EC000003CC000003AC0000038C0000036C0000034C0000032C0000048
:2070800030C000002EC000002CC000002AC0000028C0000026C0000024C0000022C00000A8
:2070A00020C000001EC000001CC0000011241FBECFEFDAE0DEBFCDBF11E0A0E0B1E0E2E3BC
:2070C000FFE702C005900D92A83AB107D9F711E0A8EAB1E001C01D92AE3BB107E1F78FD30B
:2070E00026C78ECFF89410926F0010928100109285001092840081E085BF15BE47985D9AEB
:20710000289A0C94000008952091B2013091B3012F5F3F4F3093B3012093B201932F37FFA6
:2071200003C08EEF831B982F990F921710F447980895479A08951F920F920FB60F9211246E
:207140002F938F939F93EF93FF9310928500109284008091A8019091A901009741F00197D3
:207160009093A9018093A801892B09F45D9A8091AA019091AB01009741F001979093AB0126
:207180008093AA01892B09F4289AE0E0F0E0859194918F5F9F4F49F08091AC019091AD0151
:2071A00001969093AD018093AC01FF91EF919F918F912F910F900FBE0F901F90189584E0BC
:2071C0008093E9000DC08091E8008B778093E80003C08EB3882351F08091E80082FFF9CFBE
:2071E0008091E80085FFEFCF8091F1000895982F83E08093E9008091E80085FD0DC0809136
:20720000E8008E778093E80003C08EB3882369F08091E80080FFF9CF9093F1005D9884E6CB
:2072200090E09093A9018093A80108954F925F926F927F928F929F92AF92BF92CF92DF921E
:20724000EF92FF920F931F93CF93DF9384E08093E9008091E80082FF57C2289884E690E067
:207260009093AB018093AA01AADF182F853481F48CE49DE19093AD018093AC0107B600FC4B
:20728000FDCFF999FECF81E180935700E89503C0843519F494DF8DE00DC28C34E1F38035F9
:2072A000D1F3843721F484E4A2DF80E003C2813611F489E5FFC18134B1F481DF182F7FDFE3
:2072C00090E0880F991FAA2797FDA095BA2F312F330F20E0442737FD4095542F822B932B68
:2072E000A42BB52BB8C1803711F483E5E3C1833549F4C0E0D1E089917ADF21E0C730D20714
:20730000D1F7D9C1863521F481E371DF80E3D2C1833731F487E86BDF85E969DF8EE1CAC149
:207320008536B9F4E0E0F0E093E085E090935700E89507B600FCFDCF80935700E89507B65D
:2073400000FCFDCFE058FF4FA0E7E030FA0771F7A2CF823739F4E1E0F0E089E08093570024
:207360008491A8C1863439F4E0E0F0E089E08093570084919FC18E3439F4E3E0F0E089E0E5
:2073800080935700849196C1813539F4E2E0F0E089E08093570084918DC1823631F489E521
:2073A00026DF80E024DF80E885C1823419F0873609F0E5C01092AD011092AC0100DF082FE8
:2073C000FEDEF82EFCDE682E8554823008F071C1902F80E0CF2DD0E0C82BD92B10926F00B3
:2073E000173609F04BC081E180935700E895DD24CC24C3943FC0E090AE01F090AF010091CC
:20740000B0011091B101B6E46B16D9F4ED2DF0E0EE29FF29E4918E2FEADEDD2081F082E08D
:2074200090E0A0E0B0E0E80EF91E0A1F1B1FE092AE01F092AF010093B0011093B101DC2470
:2074400018C0D801C701B695A7959795879559D5CEDE82E090E0A0E0B0E0E80EF91E0A1FF2
:207460001B1FE092AE01F092AF010093B0011093B1012197209709F0BECF7DC08090AE01F5
:207480009090AF01A090B001B090B10196E4691609F05DC083E0F40180935700E89507B63E
:2074A00000FCFDCF54C0F6E46F1661F5772031F1E090AE01F090AF010091B0011091B1019E
:2074C0007EDED82ECC24852D90E08C299D29F7010C0140925700E895112482E090E0A0E08B
:2074E000B0E0E80EF91E0A1F1B1FE092AE01F092AF010093B0011093B10102C060DE582E1A
:20750000742423C0E090AE01F090AF010091B0011091B10116950795F794E79450DE682FFA
:20752000C701F7D48091AE019091AF01A091B001B091B1010296A11DB11D8093AE01909349
:20754000AF01A093B001B093B101219704C05524772444244394209709F0A5CF96E46916B6
:2075600041F485E0F40180935700E89507B600FCFDCF8DE03CDE82E080936F009CC0833492
:2075800071F40091AE011091AF0119DE90E021E0F8010C0120935700E89511247CCE8336C8
:2075A00019F5E090AE01F090AF010091B0011091B10105DEF701E16090E021E00C0120938C
:2075C0005700E895112482E090E0A0E0B0E0E80EF91E0A1F1B1FE092AE01F092AF0100936A
:2075E000B0011093B10157CE8D3661F4E091AE01F091AF0185E080935700E89507B600FCF2
:20760000FDCF49CE823551F4E091AE01F091AF0105911491812FEBDD802F4CC0843421F5FE
:20762000E090AE01F090AF010091B0011091B10116950795F794E794C2DD682FC70169D4DE
:207640008091AE019091AF01A091B001B091B1010296A11DB11D8093AE019093AF01A093D8
:20766000B001B093B10117CE843609F5E090AE01F090AF010091B0011091B101D801C70142
:20768000B695A795979587953CD4B1DD82E090E0A0E0B0E0E80EF91E0A1F1B1FE092AE010A
:2076A000F092AF010093B0011093B10104C08B3111F08FE39CDD83E08093E9009091E8002B
:2076C0008091E8008E778093E80095FF04C010C08EB38823C9F08091E80080FFF9CF809193
:2076E000E8008E778093E80003C08EB3882361F08091E80080FFF9CF84E08093E9008091F1
:20770000E8008B778093E800DF91CF911F910F91FF90EF90DF90CF90BF90AF909F908F90AC
:207720007F906F905F904F9008959091B601892F8F77813249F58091B7018032A1F081328A
:2077400019F5913A09F58091E800877F8093E8008DE091E067E070E00BD28091E8008B770B
:207760008093E8000895913279F48091E800877F8093E8008DE091E067E070E05DD2809192
:20778000E8008E778093E800089582E061EC42E0B5D083E061E842E1B1D084E060E842E1EF
:2077A000ADC084B7877F84BF88E10FB6F89480936000109260000FBE20E880E090E00FB63F
:2077C000F89420936100809361000FBE81E085BF92E095BF3F9A209A559AE1E6F0E02083A1
:2077E000108247985D9A289A109289008AEF8093880090936F0083E080938100F0C0409116
:20780000000850910108109201081092000894B714BE88E10FB6F8948093600010926000D5
:207820000FBE292F30E0F901E270F07091FD18C090FF05C0859194918F5F9F4F81F423FFFF
:207840000FC08091090190910A014817590741F0E0E0F0E0859194918F5F9F4F09F042DC64
:20786000A0DF78941092AD011092AC010CC0DEDC36D38091AC019091AD0181549F4110F00D
:207880001092140141DC80911401882381F78091E00081608093E00025DC80E090E0089598
:2078A000FA01923049F0933061F09130F9F485E191E022E130E01EC087E291E02EE330E04D
:2078C00019C0882329F485E691E024E030E012C0813029F489E691E022E230E00BC0823006
:2078E00029F48DE891E028E130E004C080E090E020E030E091838083C90108958093E9004E
:207900008091EB0081608093EB001092ED006093EC004093ED008091EE00881F8827881F62
:2079200008958091B60188238CF403C08EB38823B1F08091E80082FFF9CF8091E8008B772A
:207940008093E80008958EB3882349F08091E80080FFF9CF8091E8008E778093E800089594
:20796000EF92FF920F931F9345D04CD008ED10E0F80180818F77808380818068808380819B
:207980008F7D808319BC1EBA1092B40180EEE82EF12CF70180818B7F8083F8018081816052
:2079A000808380E060E042E0A9DFE1EEF0E080818E7F8083E2EEF0E0808181608083808144
:2079C00088608083F70180818E7F8083F8018081806180831F910F91FF90EF900895E7ED06
:2079E000F0E08081816080838AE482BF81E08093B501B6CFE8EDF0E080818E7F808310921C
:207A0000E20008951092DA001092E10008951F920F920FB60F9211242F933F934F935F93F6
:207A20006F937F938F939F93AF93BF93EF93FF938091DA0080FF1BC08091D80080FF17C0B2
:207A40008091DA008E7F8093DA008091D90080FF0BC080E189BD82E189BD09B400FEFDCF36
:207A600081E08EBB3BD203C019BC1EBA37D28091E10080FF17C08091E20080FF13C0809138
:207A8000E2008E7F8093E2008091E20080618093E2008091D80080628093D80019BC85E049
:207AA0008EBB1CD28091E10084FF2CC08091E20084FF28C080E189BD82E189BD09B400FEC5
:207AC000FDCF8091D8008F7D8093D8008091E1008F7E8093E1008091E2008F7E8093E20012
:207AE0008091E20081608093E2008091B401882331F48091E30087FD02C081E001C084E067
:207B00008EBBECD18091E10083FF21C08091E20083FF1DC08091E100877F8093E10082E06A
:207B20008EBB1092B4018091E1008E7F8093E1008091E2008E7F8093E2008091E2008061E9
:207B40008093E20080E060E042E0D8DEC7D1FF91EF91BF91AF919F918F917F916F915F9130
:207B60004F913F912F910F900FBE0F901F9018959C014091BC015091BD014617570718F49D
:207B8000F90190E044C06115710511F0AB01F8CF8091E8008E778093E80040E050E0F0CF0F
:207BA0008EB3882309F444C0853009F443C08091E80083FF02C081E008958091E80082FD70
:207BC00031C08091E80080FF22C08091F3009091F200782F60E0292F30E0262B372B07C07A
:207BE00081918093F100415050402F5F3F4F4115510519F02830310598F390E02830310566
:207C000009F491E08091E8008E778093E8004115510531F6992321F605C08EB3882341F075
:207C2000853041F08091E80082FFF7CF80E0089582E0089583E008959C016115710529F47C
:207C40008091E8008B778093E800F90126C08EB3882391F1853091F18091E80083FF02C06C
:207C600081E008958091E80082FFF1CF06C08091F10081936150704059F02091F300809191
:207C8000F200322F20E090E0822B932B892B79F78091E8008B778093E80061157105B9F601
:207CA00005C08EB3882341F0853041F08091E80080FFF7CF80E0089582E0089583E00895C2
:207CC0000F931F93DF93CF9300D0CDB7DEB7E6EBF1E08091F100819381E0EE3BF807C9F792
:207CE00024DD8091E80083FFE4C08091B6019091B701953009F46DC0963040F4913081F1A7
:207D0000913070F0933009F0D4C02AC0983009F4A3C0993009F4B2C0963009F0CAC07CC023
:207D2000803809F4C6C0823809F0C3C08091BA0187708093E9008091EB001092E9002091DB
:207D4000E800277F2093E80090E025E0969587952A95E1F781708093F1001092F10087C0D8
:207D6000882319F0823009F0A4C08F71823009F0A0C08091B801882331F52091BA01277097
:207D800009F497C02093E9008091EB0080FF1BC0933021F48091EB00806213C08091EB0018
:207DA00080618093EB0081E090E002C0880F991F2A95E2F78093EA001092EA008091EB00E5
:207DC00088608093EB001092E9008091E800877F51C0882309F06DC01091B8011F770FB79B
:207DE000F8948091E800877F8093E8009ADD8091E80080FFFCCF8091E3008078812B809398
:207E0000E30080688093E300112311F482E001C083E08EBB0FBF4DC08058823008F049C033
:207E20008091B8019091B9016091BA01AE014F5F5F4F36DDBC01009709F43BC08091E8008E
:207E4000877F8093E80089819A8192DE8091E8008B778093E8002DC0803859F58091E800AA
:207E6000877F8093E8008091B4018093F1008091E8008E778093E80054DD1BC08823C9F4CA
:207E80009091B8019230A8F48091E800877F8093E8009093B40145DD8091B401882331F420
:207EA0008091E30087FD02C081E001C084E08EBB6CDC8091E80083FF0AC08091EB0080624E
:207EC0008093EB008091E800877F8093E8000F900F90CF91DF911F910F91089508951F9360
:207EE0008EB3882361F01091E9001092E9008091E80083FF01C0E4DE17701093E9001F916F
:207F00000895F999FECF92BD81BDF89A992780B50895262FF999FECF1FBA92BD81BD20BDBD
:207F20000FB6F894FA9AF99A0FBE01960895F894FFCF4341544552494E4100777700080031
:207F40000000000000080112011001020000084123360001000201000109023E00020100FF
:207F600080320904000001020201000524001001042402040524060001070582030800FF0C
:207F800009040100020A000000070504021000010705830210000104030904220341007216
:207FA000006400750069006E006F0020004C0065006F006E006100720064006F0000001836
:1A7FC00003410072006400750069006E006F0020004C004C004300000000D7
:00000001FF
